{
  "contractName": "ContactRegistry",
  "abi": [
    {
      "anonymous": false,
      "inputs": [
        {
          "indexed": true,
          "internalType": "uint256",
          "name": "id",
          "type": "uint256"
        },
        {
          "indexed": false,
          "internalType": "string",
          "name": "name",
          "type": "string"
        },
        {
          "indexed": false,
          "internalType": "string",
          "name": "number",
          "type": "string"
        }
      ],
      "name": "ContactRegistered",
      "type": "event"
    },
    {
      "inputs": [],
      "name": "contactCount",
      "outputs": [
        {
          "internalType": "uint256",
          "name": "",
          "type": "uint256"
        }
      ],
      "stateMutability": "view",
      "type": "function",
      "constant": true
    },
    {
      "inputs": [
        {
          "internalType": "uint256",
          "name": "",
          "type": "uint256"
        }
      ],
      "name": "contacts",
      "outputs": [
        {
          "internalType": "uint256",
          "name": "id",
          "type": "uint256"
        },
        {
          "internalType": "string",
          "name": "name",
          "type": "string"
        },
        {
          "internalType": "string",
          "name": "number",
          "type": "string"
        }
      ],
      "stateMutability": "view",
      "type": "function",
      "constant": true
    },
    {
      "inputs": [
        {
          "internalType": "string",
          "name": "_name",
          "type": "string"
        },
        {
          "internalType": "string",
          "name": "_number",
          "type": "string"
        }
      ],
      "name": "registerContact",
      "outputs": [],
      "stateMutability": "nonpayable",
      "type": "function"
    },
    {
      "inputs": [
        {
          "internalType": "uint256",
          "name": "_id",
          "type": "uint256"
        }
      ],
      "name": "viewContact",
      "outputs": [
        {
          "internalType": "uint256",
          "name": "",
          "type": "uint256"
        },
        {
          "internalType": "string",
          "name": "",
          "type": "string"
        },
        {
          "internalType": "string",
          "name": "",
          "type": "string"
        }
      ],
      "stateMutability": "view",
      "type": "function",
      "constant": true
    }
  ],
  "bytecode": "0x608060405234801561001057600080fd5b50610d64806100206000396000f3fe608060405234801561001057600080fd5b506004361061004c5760003560e01c8063c86cb96d14610051578063e0f478cb14610083578063f0e5b0e0146100b5578063fe9c890d146100d3575b600080fd5b61006b60048036038101906100669190610585565b6100ef565b60405161007a93929190610651565b60405180910390f35b61009d60048036038101906100989190610585565b6102b1565b6040516100ac93929190610651565b60405180910390f35b6100bd6103eb565b6040516100ca9190610696565b60405180910390f35b6100ed60048036038101906100e891906107e6565b6103f1565b005b600060608060008411801561010657506001548411155b610145576040517f08c379a000000000000000000000000000000000000000000000000000000000815260040161013c906108aa565b60405180910390fd5b60008060008681526020019081526020016000206040518060600160405290816000820154815260200160018201805461017e906108f9565b80601f01602080910402602001604051908101604052809291908181526020018280546101aa906108f9565b80156101f75780601f106101cc576101008083540402835291602001916101f7565b820191906000526020600020905b8154815290600101906020018083116101da57829003601f168201915b50505050508152602001600282018054610210906108f9565b80601f016020809104026020016040519081016040528092919081815260200182805461023c906108f9565b80156102895780601f1061025e57610100808354040283529160200191610289565b820191906000526020600020905b81548152906001019060200180831161026c57829003601f168201915b5050505050815250509050806000015181602001518260400151935093509350509193909250565b60006020528060005260406000206000915090508060000154908060010180546102da906108f9565b80601f0160208091040260200160405190810160405280929190818152602001828054610306906108f9565b80156103535780601f1061032857610100808354040283529160200191610353565b820191906000526020600020905b81548152906001019060200180831161033657829003601f168201915b505050505090806002018054610368906108f9565b80601f0160208091040260200160405190810160405280929190818152602001828054610394906108f9565b80156103e15780601f106103b6576101008083540402835291602001916103e1565b820191906000526020600020905b8154815290600101906020018083116103c457829003601f168201915b5050505050905083565b60015481565b6000825111610435576040517f08c379a000000000000000000000000000000000000000000000000000000000815260040161042c90610976565b60405180910390fd5b6000815111610479576040517f08c379a0000000000000000000000000000000000000000000000000000000008152600401610470906109e2565b60405180910390fd5b6001600081548092919061048c90610a31565b9190505550604051806060016040528060015481526020018381526020018281525060008060015481526020019081526020016000206000820151816000015560208201518160010190816104e19190610c25565b5060408201518160020190816104f79190610c25565b509050506001547f5fe56b926edb8aa07715b537588b18aaf9030371ffdb4efc773b11034559676b838360405161052f929190610cf7565b60405180910390a25050565b6000604051905090565b600080fd5b600080fd5b6000819050919050565b6105628161054f565b811461056d57600080fd5b50565b60008135905061057f81610559565b92915050565b60006020828403121561059b5761059a610545565b5b60006105a984828501610570565b91505092915050565b6105bb8161054f565b82525050565b600081519050919050565b600082825260208201905092915050565b60005b838110156105fb5780820151818401526020810190506105e0565b60008484015250505050565b6000601f19601f8301169050919050565b6000610623826105c1565b61062d81856105cc565b935061063d8185602086016105dd565b61064681610607565b840191505092915050565b600060608201905061066660008301866105b2565b81810360208301526106788185610618565b9050818103604083015261068c8184610618565b9050949350505050565b60006020820190506106ab60008301846105b2565b92915050565b600080fd5b600080fd5b7f4e487b7100000000000000000000000000000000000000000000000000000000600052604160045260246000fd5b6106f382610607565b810181811067ffffffffffffffff82111715610712576107116106bb565b5b80604052505050565b600061072561053b565b905061073182826106ea565b919050565b600067ffffffffffffffff821115610751576107506106bb565b5b61075a82610607565b9050602081019050919050565b82818337600083830152505050565b600061078961078484610736565b61071b565b9050828152602081018484840111156107a5576107a46106b6565b5b6107b0848285610767565b509392505050565b600082601f8301126107cd576107cc6106b1565b5b81356107dd848260208601610776565b91505092915050565b600080604083850312156107fd576107fc610545565b5b600083013567ffffffffffffffff81111561081b5761081a61054a565b5b610827858286016107b8565b925050602083013567ffffffffffffffff8111156108485761084761054a565b5b610854858286016107b8565b9150509250929050565b7f496e76616c696420636f6e746163742049440000000000000000000000000000600082015250565b60006108946012836105cc565b915061089f8261085e565b602082019050919050565b600060208201905081810360008301526108c381610887565b9050919050565b7f4e487b7100000000000000000000000000000000000000000000000000000000600052602260045260246000fd5b6000600282049050600182168061091157607f821691505b602082108103610924576109236108ca565b5b50919050565b7f4e616d652063616e6e6f7420626520656d707479000000000000000000000000600082015250565b60006109606014836105cc565b915061096b8261092a565b602082019050919050565b6000602082019050818103600083015261098f81610953565b9050919050565b7f4e756d6265722063616e6e6f7420626520656d70747900000000000000000000600082015250565b60006109cc6016836105cc565b91506109d782610996565b602082019050919050565b600060208201905081810360008301526109fb816109bf565b9050919050565b7f4e487b7100000000000000000000000000000000000000000000000000000000600052601160045260246000fd5b6000610a3c8261054f565b91507fffffffffffffffffffffffffffffffffffffffffffffffffffffffffffffffff8203610a6e57610a6d610a02565b5b600182019050919050565b60008190508160005260206000209050919050565b60006020601f8301049050919050565b600082821b905092915050565b600060088302610adb7fffffffffffffffffffffffffffffffffffffffffffffffffffffffffffffffff82610a9e565b610ae58683610a9e565b95508019841693508086168417925050509392505050565b6000819050919050565b6000610b22610b1d610b188461054f565b610afd565b61054f565b9050919050565b6000819050919050565b610b3c83610b07565b610b50610b4882610b29565b848454610aab565b825550505050565b600090565b610b65610b58565b610b70818484610b33565b505050565b5b81811015610b9457610b89600082610b5d565b600181019050610b76565b5050565b601f821115610bd957610baa81610a79565b610bb384610a8e565b81016020851015610bc2578190505b610bd6610bce85610a8e565b830182610b75565b50505b505050565b600082821c905092915050565b6000610bfc60001984600802610bde565b1980831691505092915050565b6000610c158383610beb565b9150826002028217905092915050565b610c2e826105c1565b67ffffffffffffffff811115610c4757610c466106bb565b5b610c5182546108f9565b610c5c828285610b98565b600060209050601f831160018114610c8f5760008415610c7d578287015190505b610c878582610c09565b865550610cef565b601f198416610c9d86610a79565b60005b82811015610cc557848901518255600182019150602085019450602081019050610ca0565b86831015610ce25784890151610cde601f891682610beb565b8355505b6001600288020188555050505b505050505050565b60006040820190508181036000830152610d118185610618565b90508181036020830152610d258184610618565b9050939250505056fea26469706673582212207ed8fc9be13860003c62b1e0c2f795b872712cdac7a7ebd2b01137c8fad298f064736f6c63430008120033",
  "immutableReferences": {},
  "source": "// SPDX-License-Identifier: MIT\npragma solidity ^0.8.0;\n\ncontract ContactRegistry {\n    // Struct to represent a contact\n    struct Contact {\n        uint256 id;\n        string name;\n        string number;\n    }\n\n    // Mapping to store contacts by their ID\n    mapping(uint256 => Contact) public contacts;\n\n    // Counter to keep track of the total number of contacts\n    uint256 public contactCount;\n\n    // Event to log contact registration\n    event ContactRegistered(uint256 indexed id, string name, string number);\n\n    // Function to register a new contact\n    function registerContact(string memory _name, string memory _number) public {\n        require(bytes(_name).length > 0, \"Name cannot be empty\");\n        require(bytes(_number).length > 0, \"Number cannot be empty\");\n\n        // Increment the contact count\n        contactCount++;\n\n        // Create a new Contact struct and add it to the mapping\n        contacts[contactCount] = Contact(contactCount, _name, _number);\n\n        // Emit an event to log the contact registration\n        emit ContactRegistered(contactCount, _name, _number);\n    }\n\n    // Function to view a contact by its ID\n    function viewContact(uint256 _id) public view returns (uint256, string memory, string memory) {\n        require(_id > 0 && _id <= contactCount, \"Invalid contact ID\");\n\n        // Retrieve the contact from the mapping\n        Contact memory contact = contacts[_id];\n\n        return (contact.id, contact.name, contact.number);\n    }\n}\n",
  "sourcePath": "/Users/bobbyliu/Desktop/ContactRegistry/truffle/contracts/ContactRegistry.sol",
  "compiler": {
    "name": "solc",
    "version": "0.8.18+commit.87f61d96.Emscripten.clang"
  },
  "schemaVersion": "3.4.16",
  "updatedAt": "2023-09-27T07:33:54.171Z",
  "networkType": "ethereum",
  "devdoc": {
    "kind": "dev",
    "methods": {},
    "version": 1
  },
  "userdoc": {
    "kind": "user",
    "methods": {},
    "version": 1
  }
}